:100000000C9446000C9465000C9465000C946500FB
:100010000C9465000C9465000C9465000C946500CC
:100020000C9465000C9465000C9465000C946500BC
:100030000C9465000C9465000C9465000C946500AC
:100040000C9465000C9465000C9465000C9465009C
:100050000C9465000C9465000C9465000C9465008C
:100060000C9465000C9465000C9465000C9465007C
:100070000C9465000C9465000C9465000C9465006C
:100080000C9465000C9465000C94650011241FBE4F
:10009000CFEFD0E4DEBFCDBF11E0A0E0B1E0E8E8F3
:1000A000F1E000E00BBF02C007900D92AE30B10747
:1000B000D9F711E0AEE0B1E001C01D92A031B10767
:1000C000E1F70E94B6000C94C2000C940000CF939C
:1000D000C82F8A3019F48DE00E9467009091C0000B
:1000E00095FFFCCFC093C60080E090E0CF910895CB
:1000F00080910E0190910F018130910561F030F0F7
:100100008230910579F00397A1F018C010920F0189
:1001100010920E0117C082E090E090930F0180933F
:100120000E0110C082E090E090930F0180930E01C9
:1001300009C010920F0110920E0104C010920F011D
:1001400010920E0180910E0190910F018130910566
:1001500039F018F0039739F0089581E085B90895D2
:1001600082E085B9089581E085B9089511B88FEFCF
:1001700082B984B915B810920F0110920E010E9435
:080180007800FDCFF894FFCFD9
:0E018800000000020000000067000000000000
:00000001FF
