:100000000C9446000C9465000C9465000C946500FB
:100010000C9465000C9465000C9465000C946500CC
:100020000C9465000C9465000C9465000C946500BC
:100030000C9465000C9465000C9465000C946500AC
:100040000C9465000C9465000C9465000C9465009C
:100050000C9465000C9465000C9465000C9465008C
:100060000C9465000C9465000C9465000C9465007C
:100070000C9465000C9465000C9465000C9465006C
:100080000C9465000C9465000C94650011241FBE4F
:10009000CFEFD0E4DEBFCDBF11E0A0E0B1E0E2EFF2
:1000A000F6E000E00BBF02C007900D92AE32B10740
:1000B000D9F721E0AEE2B1E001C01D92A833B2074A
:1000C000E1F70E94D5010C9477030C940000CF93C4
:1000D000C82F8A3019F48DE00E9467008091C0001B
:1000E00085FFFCCFC093C60080E090E0CF910895DB
:1000F000CF92DF92EF92FF926B017C016091300111
:10010000709131018091320190913301A7019601E4
:100110000E94E301882309F458C020E030E0A901DF
:10012000C701B6010E94E301811106C0E1E9F0E0D8
:1001300080818870808305C0E1E9F0E08081836080
:10014000808328E539E344E75FE3C701B6010E94F5
:10015000E30188233CF48FEF9FEF90939900809305
:10016000980027C020E03CE24BEF56E4C701B601FF
:100170000E94050318162CF4109299001092980012
:1001800018C020E030E040E053E4C701B6010E940F
:100190000A039B01AC0160E074E284EF9AE40E94E0
:1001A000E8010E945A0261507109709399006093AE
:1001B00098001092950010929400C0923001D09255
:1001C0003101E0923201F0923301FF90EF90DF9025
:1001D000CF90089580E4809390008BE0809391000D
:1001E00060E070E0CB010E947800089510929000CA
:1001F00010929100089580B18095809337012091ED
:100200003401309135012230310509F47EC040F4CB
:100210002115310571F02130310509F46BC0A7C0FB
:100220002330310509F47AC02430310509F48BC03C
:100230009EC08130F9F490912E019923D9F0E0917C
:100240002F01E730B8F481E090E09093350180937E
:100250003401EF5FE0932F01F0E0EE0FFF1FEE0F90
:10026000FF1FE050FF4F60817181828193810E9466
:1002700078007DC08230F9F490912E019923D9F055
:10028000E0912F01EE23B9F082E090E090933501E8
:1002900080933401E150E0932F01F0E0EE0FFF1F57
:1002A000EE0FFF1FE050FF4F6081718182819381CB
:1002B0000E9478005CC0843059F490912E01911115
:1002C00007C083E090E090933501809334014FC0E4
:1002D000843059F480912E01882339F084E090E035
:1002E000909335018093340142C0109235011092F1
:1002F00034013DC021E030E0813011F020E030E0F9
:10030000309335012093340132C0823011F020E067
:1003100030E0309335012093340129C0843039F422
:1003200083E090E0909335018093340120C01092D7
:1003300035011092340181E090912E01911180E0FD
:1003400080932E0114C0843039F484E090E09093BF
:100350003501809334010BC01092350110923401A5
:1003600081E090912E01911180E080932E01809187
:100370003401909135018330910529F00497A1F45F
:100380000E94F60008950E94EA00E0912F01F0E03B
:10039000EE0FFF1FEE0FFF1FE050FF4F60817181D6
:1003A000828193810E947800089511B88FEF82B9FD
:1003B00084B915B80E94F6001092350110923401EC
:1003C0000E94FB00FDCF0E94900208F481E0089596
:1003D0000E94FC010C94CB020E94C40258F00E94BF
:1003E000BD0240F029F45F3F29F00C94B402511192
:1003F0000C94FF020C94BA020E94DC0268F3992369
:10040000B1F3552391F3951B550BBB27AA27621710
:100410007307840738F09F5F5F4F220F331F441F1D
:10042000AA1FA9F335D00E2E3AF0E0E832D0915051
:100430005040E695001CCAF72BD0FE2F29D0660F3E
:10044000771F881FBB1F261737074807AB07B0E881
:1004500009F0BB0B802DBF01FF2793585F4F3AF087
:100460009E3F510578F00C94B4020C94FF025F3F5C
:10047000E4F3983ED4F3869577956795B795F7950D
:100480009F5FC9F7880F911D9695879597F90895F5
:10049000E1E0660F771F881FBB1F62177307840791
:1004A000BA0720F0621B730B840BBA0BEE1F88F7A0
:1004B000E09508950E9461026894B1110C94FF02C6
:1004C00008950E94E40288F09F5798F0B92F992769
:1004D000B751B0F0E1F0660F771F881F991F1AF02F
:1004E000BA95C9F714C0B13091F00E94FE02B1E094
:1004F00008950C94FE02672F782F8827B85F39F093
:10050000B93FCCF3869577956795B395D9F73EF4C7
:1005100090958095709561957F4F8F4F9F4F08956F
:10052000990F0008550FAA0BE0E8FEEF1616170604
:10053000E807F907C0F012161306E407F50798F06C
:10054000621B730B840B950B39F40A2661F0232B85
:10055000242B252B21F408950A2609F4A140A69501
:100560008FEF811D811D089597F99F6780E870E0E6
:1005700060E008959FEF80EC089500240A94161619
:10058000170618060906089500240A941216130681
:10059000140605060895092E0394000C11F488230F
:1005A00052F0BB0F40F4BF2B11F460FF04C06F5F2B
:1005B0007F4F8F4F9F4F089557FD9058440F551F01
:1005C00059F05F3F71F04795880F97FB991F61F0D5
:1005D0009F3F79F087950895121613061406551F4C
:1005E000F2CF4695F1DF08C0161617061806991FB8
:1005F000F1CF86957105610508940895E894BB27AD
:1006000066277727CB0197F908950E94900208F496
:100610008FEF08950E941D030C94CB020E94BD022F
:1006200038F00E94C40220F0952311F00C94B4021B
:100630000C94BA0211240C94FF020E94DC0270F3A5
:10064000959FC1F3950F50E0551F629FF001729F77
:10065000BB27F00DB11D639FAA27F00DB11DAA1F86
:10066000649F6627B00DA11D661F829F2227B00DD3
:10067000A11D621F739FB00DA11D621F839FA00D5E
:10068000611D221F749F3327A00D611D231F849FAE
:10069000600D211D822F762F6A2F11249F57504005
:1006A0009AF0F1F088234AF0EE0FFF1FBB1F661F80
:1006B000771F881F91505040A9F79E3F510580F049
:1006C0000C94B4020C94FF025F3FE4F3983ED4F321
:1006D000869577956795B795F795E7959F5FC1F7ED
:1006E000FE2B880F911D9695879597F90895F8949C
:0206F000FFCF3A
:1006F200A4D082437BD49243A4D0A443719DAE4341
:100702000000C4430000DC43A4F0F64300D00244DE
:0E071200000000020000000067000000000070
:00000001FF
