:100000000C9446000C9465000C9465000C946500FB
:100010000C9465000C9465000C9465000C946500CC
:100020000C9465000C9465000C9465000C946500BC
:100030000C9465000C9465000C9465000C946500AC
:100040000C9465000C9465000C9465000C9465009C
:100050000C9465000C9465000C9465000C9465008C
:100060000C9465000C9465000C9465000C9465007C
:100070000C9465000C9465000C9465000C9465006C
:100080000C9465000C9465000C94650011241FBE4F
:10009000CFEFD0E4DEBFCDBF11E0A0E0B1E0E8EAF1
:1000A000F3E000E00BBF02C007900D92AE30B10745
:1000B000D9F721E0AEE0B1E001C01D92A231B20754
:1000C000E1F70E94B9010C94D2010C940000CF9387
:1000D000DF9300D01F92CDB7DEB789837B836A831D
:1000E00089818A3031F48A819B81BC018DE00E9434
:1000F000670080EC90E0FC018081882F90E08072A6
:100100009927892BB1F386EC90E02981FC012083AB
:1001100080E090E00F900F900F90DF91CF910895C5
:10012000CF93DF93CDB7DEB780E290E0FC01808112
:1001300080930F01809110019091110182309105FF
:1001400009F47BC08330910528F4009779F001977A
:10015000C9F0D5C08430910509F476C0843091058A
:1001600008F490C0059709F494C0C9C088E290E0F3
:1001700027E0FC01208381E090E0909311018093BF
:100180001001BDC088E290E0FC01808180930E01E7
:1001900080910F01882F90E081709927892B99F425
:1001A00080910F01882F90E082709927892B59F058
:1001B00080910E01893038F482E090E09093110133
:1001C0008093100139C080910F01882F90E08170D9
:1001D0009927892B99F080910F01882F90E08270E8
:1001E0009927892B59F480910E01882339F083E0F7
:1001F00090E090931101809310011EC080910F0137
:10020000882F90E081709927892B79F480910F01D4
:10021000882F90E082709927892B39F484E090E050
:10022000909311018093100107C081E090E09093BA
:1002300011018093100163C062C085E090E090934B
:100240001101809310015BC080910F01882F90E015
:1002500081709927892B79F080910F01882F90E088
:1002600082709927892B39F081E090E090931101F9
:100270008093100144C084E090E09093110180933A
:1002800010013DC085E090E0909311018093100132
:1002900036C080910F01882F90E081709927892BBB
:1002A00079F480910F01882F90E082709927892B33
:1002B00039F484E090E090931101809310011EC006
:1002C00080910F01882F90E081709927892B79F018
:1002D00080910F01882F90E082709927892B39F047
:1002E00081E090E0909311018093100107C085E0B8
:1002F00090E0909311018093100100C00000809164
:100300001001909111018230910589F0833091059F
:1003100028F4009729F1019729F127C0843091052D
:1003200081F08430910590F00597F1F01EC088E2CD
:1003300090E028E230E0F90120812F5FFC0120836A
:1003400014C088E290E0FC0110820FC088E290E0C7
:1003500028E230E0F90120812150FC01208305C012
:10036000000003C0000001C000000000DF91CF9139
:100370000895CF93DF93CDB7DEB781E290E0FC0123
:10038000108282E290E02FEFFC01208387E290E070
:100390002FEFFC01208388E290E0FC0110820E9494
:0803A0009000FDCFF894FFCF9F
:0E03A8000000000200000000670000000000DE
:00000001FF
