:100000000C944D000C946C000C946C000C946C00DF
:100010000C946C000C946C000C946C000C946C00B0
:100020000C946C000C946C000C946C000C946C00A0
:100030000C946C000C9423010C946C000C946C00D8
:100040000C946C000C946C000C946C000C946C0080
:100050000C946C000C946C000C946C000C946C0070
:100060000C946C000C946C000C946C000C946C0060
:100070000C946C000C946C000C946C000C946C0050
:100080000C946C000C946C000C946C00920199011F
:10009000CB01E401D201EB01210211241FBECFEFFD
:1000A000D0E4DEBFCDBF11E0A0E0B1E0E4E5F5E0D3
:1000B00000E00BBF02C007900D92A431B107D9F741
:1000C00021E0A4E1B1E001C01D92AD31B207E1F73A
:1000D0000E9479020C94A8020C94000040E050E0C9
:1000E0000CC000002F5F3F4F02C020E030E02730FF
:1000F00063E03607B4F34F5F5F4F48175907ACF31F
:1001000008959BB19F7B9BB988B98BB180688BB9EF
:1001100000008BB18F778BB982E090E00E946E0077
:10012000089581E00E9481000895813120F4815872
:100130000E948100089581550E948100089584E6FF
:1001400090E00E946E0088E30E94810086E00E9499
:1001500081008FE00E94810081E00E9481008AE09E
:1001600090E00E946E0008959BB190649BB988B99D
:100170008BB180688BB900008BB18F778BB981E030
:1001800090E00E946E000895EF92FF920F931F93EC
:10019000CF93DF93182FEB010E9491000EC001E076
:1001A000010F812F0E9495007E018FEFE81AF80A57
:1001B00088810E94B400102FE70188818111EFCF60
:1001C000DF91CF911F910F91FF90EF900895CF9302
:1001D000C82F8A3019F48DE00E94E7008091C0009A
:1001E00085FFFCCFC093C60080E090E0CF910895DA
:1001F0008BE0809381008DE790E09093890080935D
:10020000880082E080936F00109285001092840035
:100210008091010190910201A0910301B09104012C
:100220008093160190931701A0931801B0931901C0
:100230008FB780688FBF089510928100089581E084
:1002400080931A0108951F920F920FB60F921124F6
:100250000BB60F922F933F934F935F936F937F93C0
:100260008F939F93AF93BF93EF93FF93809116016A
:1002700090911701A0911801B09119010197A1095E
:10028000B1098093160190931701A0931801B093C0
:100290001901892B8A2B8B2B91F40E941F018091CD
:1002A000010190910201A0910301B091040180939A
:1002B000160190931701A0931801B0931901FF91B3
:1002C000EF91BF91AF919F918F917F916F915F91CE
:1002D0004F913F912F910F900BBE0F900FBE0F903B
:1002E0001F901895609301017093020180930301A0
:1002F0009093040160931601709317018093180185
:1003000090931901089580B180931401E0911B012D
:10031000F0911C01E730F10508F0C7C0EA5BFF4F20
:100320000C949F0281E090E090931C0180931B014C
:10033000BCC0982F917080FD0DC081FF0BC0209133
:100340000001293038F482E090E090931C01809302
:100350001B01ABC0992369F081FD0BC02091000106
:10036000222339F083E090E090931C0180931B01DD
:100370009CC0911109C081FD07C084E090E090937A
:100380001C0180931B0191C081E090E090931C01BF
:1003900080931B018AC085E090E090931C018093BC
:1003A0001B0183C080FF09C081FF07C081E090E08E
:1003B00090931C0180931B0178C084E090E090939F
:1003C0001C0180931B0171C086E090E090931C019A
:1003D00080931B016AC0982F917080FD0BC081FD36
:1003E00009C084E090E090931C0180931B0110925F
:1003F00015015BC0209115012A3048F082E090E0A1
:1004000090931C0180931B01109215014EC0911115
:100410000AC081FF08C030910001393020F42F5FFD
:100420002093150142C0992309F43FC081FF3DC0CC
:1004300081E090E090931C0180931B0110921501C4
:1004400034C0982F917080FD0BC081FD09C084E0FD
:1004500090E090931C0180931B011092150125C020
:10046000209115012A3048F083E090E090931C0120
:1004700080931B011092150118C0992351F081FD42
:1004800008C030910001332321F02F5F2093150124
:100490000CC0992351F081FF08C081E090E0909357
:1004A0001C0180931B011092150180911B019091FA
:1004B0001C018230910571F018F4892B39F00895F0
:1004C0008330910581F0049759F0089587E0809377
:1004D00000010895809100018F5F809300010895CD
:1004E00010920001089580910001815080930001D5
:1004F000089511B88FEF82B987B918B88AB91BB8B7
:1005000064E670E080E090E00E9472010E94F800D2
:100510000E949F000E9491000E9483010E9491000E
:1005200081E00E94950080910001805D0E94B400EE
:1005300080911A018823E1F310921A01EDCFEE0F9A
:10054000FF1F0024001C0BBE0790F691E02D0994BC
:04055000F894FFCF4D
:1005540007010000000000000200000000E70000A6
:040564000000000093
:00000001FF
